:400000000010002011000000311600003116000080B500AF01F010FB80B584B000AF021CFB1D1A70224A3B1C0B3312781A70214A3B1C0A3312781A701F4B1B68013BFB608D
:400040001AE01E4B1868391C0B31FA68131C5B009B18C31801331B780B70184B1868391C0A31FA68131C5B009B18C31802331B780B70FB68013BFB60FB68002B0ADB0F4B59
:400080001968FA68131C5B009B185B5CFA1D12789A42D6D90A4B3A1C0B3212781A60094B3A1C0A3212781A60BD4604B080BDC046CCF1FF0FCDF1FF0FE81C0000D0000020E2
:4000C0001CFF0B4020FF0B4080B500AF1B4B1B4A12688021C9020A431A601820FFF79CFF174B19221A60052001F03AFB154B164A1278D2B21A60052001F042FB0F4B0F4A5B
:400100001168124A0A401A60114B20221A60114B20221A60104B10221A60104B802212061A600F4B802212061A600E4B0E4A1A600E4B0F4A1A60BD4680BDC04600010B40E9
:400140002CFF0B4028FF0B40E5F1FF0FFFFFFBFF080202400C0202402002024008010B4004010B40000002402F000080400002409B00008080B582B000AF72B6FB1D002211
:400180001A7023E0FB1D1A78131C5B009B185B00324A9B183B603B681A78597809020A43997809040A43DB781B0613431A1C3B6819795B791B020B439BB2101C191C01F0CA
:4001C000BBFAFB1DFA1D127801321A70FB1D1B78012BD7D9224B992212041A60214BEE2212021A60204B20221A60204B204A1A60204BC02292021A601F4B03221A601F4B47
:40020000D82212011A601E4B992212041A601D4B992212041A601C4B992212041A601B4B992212041A601A4B10221A60194B194A1278D2B202210A43D2B21A70154B154A4A
:400240001278D2B206210A43D2B21A70FFF73CFF01F082FABD4602B080BDC046DC1C0000000001400C0001400000044008000440B61103000801044008020440080304408E
:4002800000500F4010500F4020500F4030500F402001054000700F4010B5064C2378002B07D10548002802D0044800E000BF0121217010BDE800002000000000D81C0000DA
:4002C00008B5084B002B03D00748084900E000BF07480168002903D0064A002A00D0904708BDC04600000000D81C0000EC000020C80000200000000080B500AF0C4B181CBA
:4003000000217D2201F0DEFC01F00EFB094B181C01F0CEFB002001F08BFC62B600E0C046054B1B78002BFAD000F022F9F7E7C046980200203D0300000D01002080B582B00A
:4003400000AF00F02BF8064B01221A70054B1B687B60054B7A681A60BD4602B080BDC04619010020CC0F0740C00F074080B582B000AF00F07FF800237B60074B01221A707F
:4003800001F0A6FA031C7B607B68181C01F0AAFABD4602B080BDC0461801002098B500AF2B4B1B78DBB2002B1FD02A4B1B78DBB21C1C01F05BFB031CDAB2274B1A55254B19
:4003C0001B78DBB20133DAB2224B1A70234B1B78DBB20133DAB2214B1A70214B00221A701C4B1B78DAB21F4B1A701F4B1B78DBB2002B2BD0174B1B78DBB21C1C01F036FBC4
:40040000031CDAB2144B1A55124B1B78DBB20133DAB2104B1A700F4B1B78DAB2114B1A700B4B01221A70104B00221A7001F0EEF90E4B181C01F094FB0D4B1B78DBB2013327
:40044000DAB20B4B1A70064B00221A70BD4698BD0401002005010020980200200A0100200601002007010020CC0000206D0300000B01002080B500AF334B1B78DBB2002B07
:400480001CD0314B1B78DBB2013BDAB22E4B1A702D4B1B78DBB2002B0AD101F0C9F901F071FB002001F0C4FB274B00221A7005E001F0ACF9254B181C01F052FB224B1B78F0
:4004C000DBB2002B32D1224B1B78DBB2002B2DD0204B1B78DAB2204B1B78DBB29A4206D11E4B1B78DBB20133DAB21C4B1A701B4B1B78DBB2052B13D1194B01221A70194B7B
:4005000001221A70124B00221A70144B00221A70154B00221A7001F08BF901F033FB05E001F074F9094B181C01F01AFB0A4B1B78DAB2084B1A700D4B1B78DBB20133DAB200
:400540000A4B1A70BD4680BD0E0100206D03000004010020080100200701002006010020CC0000200D010020050100200901002080B500AF224B1B78012B3BD100F0D8FFD3
:40058000031C012B36D11E4B5B78012B02D100F03BF82FE01A4B5B78022B02D100F080F928E0174B5B78032B02D100F099FB21E0134B5B78042B02D100F0BEFA1AE0104BE8
:4005C0005B78052B02D100F0A3FD13E00C4B5B78062B02D100F05AFC0CE0094B5B78102B02D100F0D3FC05E0054B5B780F2B01D100F016FE034B00221A70BD4680BDC046F6
:40060000980200200D01002090B587B000AF0023FB600023BB6000237B603B1C173300221A70FB1C00221A703B1C163300221A703B1C123300221A70964B9B78FB60FB6897
:400640001B02FB60934BDB78FA681343FB60914B1B79BB60BB681B02BB608E4B5B79BA681343BB608C4B01221A708B4B01225A70BB68DA083B1C17331A70BB68D9B2FB1C5C
:4006800007220A401A70FB1C1B78002B06D03B1C17333A1C1732127801321A707E4B3A1C173212789A703B1C1233FA681A703B1C133303221A703B1C15333A1C1732127873
:4006C0001A709CE03B1C15331B78012B47D93B1C143300221A7035E03B1C12331B786F4AD35C002B04D03B1C163301221A7003E03B1C163300221A703B1C13331B783A1CFF
:400700001332127864498A5CD1B23A1C163210783A1C14321278041C9440221CD2B24A40D2B2D1B25C4AD1543B1C12333A1C1232127801321A703B1C14333A1C1432127835
:4007400001321A703B1C14331B78082BC4D13B1C13333A1C1332127801321A7048E03B1C143300221A7035E03B1C12331B784B4AD35C002B04D03B1C163301221A7003E09B
:400780003B1C163300221A703B1C13331B783A1C1332127840498A5CD1B23A1C163210783A1C14321278041C9440221CD2B24A40D2B2D1B2384AD1543B1C12333A1C123236
:4007C000127801321A703B1C14333A1C1432127801321A703A1C1432FB1C12781B789A42C2D13B1C13333A1C1332127801321A703B1C15333A1C15321278013A1A703B1C91
:4008000015331B78002B00D05CE73B1C13331B780233DBB2181C00F035FE031C7B603B1C13331B787A68120AD1B21B4AD1543B1C13331B7801337A68D1B2174AD1540120B1
:4008400001F0F6F93B1C153300221A700EE03B1C15331B78104AD35C181C01F09BF83B1C15333A1C1532127801321A703B1C15331A783B1C13331B7803339A42E7D13B1CE7
:4008800013331B780333181C00F0B2FEBD4607B090BDC046980200201C0100209C01002090B587B000AF0023FB600023BB6000237B603B1C173300221A70FB1C00221A709F
:4008C0003B1C163300221A703B1C123300221A70964B9B78FB60FB681B02FB60934BDB78FA681343FB60914B1B79BB60BB681B02BB608E4B5B79BA681343BB608C4B0122D6
:400900001A708B4B02225A70BB68DA083B1C17331A70BB68D9B2FB1C07220A401A70FB1C1B78002B06D03B1C17333A1C1732127801321A707E4B3A1C173212789A703B1CF2
:400940001233FA681A703B1C133303221A703B1C15333A1C173212781A709CE03B1C15331B78012B47D93B1C143300221A7035E03B1C12331B786F4AD35C002B04D03B1CE2
:40098000163301221A7003E03B1C163300221A703B1C13331B783A1C1332127864498A5CD1B23A1C163210783A1C14321278041C9440221CD2B24A40D2B2D1B25C4AD15449
:4009C0003B1C12333A1C1232127801321A703B1C14333A1C1432127801321A703B1C14331B78082BC4D13B1C13333A1C1332127801321A7048E03B1C143300221A7035E0FA
:400A00003B1C12331B784B4AD35C002B04D03B1C163301221A7003E03B1C163300221A703B1C13331B783A1C1332127840498A5CD1B23A1C163210783A1C14321278041C95
:400A40009440221CD2B24A40D2B2D1B2384AD1543B1C12333A1C1232127801321A703B1C14333A1C1432127801321A703A1C1432FB1C12781B789A42C2D13B1C13333A1C78
:400A80001332127801321A703B1C15333A1C15321278013A1A703B1C15331B78002B00D05CE73B1C13331B780233DBB2181C00F0E9FC031C7B603B1C13331B787A68120A8C
:400AC000D1B21B4AD1543B1C13331B7801337A68D1B2174AD154012001F0AAF83B1C153300221A700EE03B1C15331B78104AD35C181C00F04FFF3B1C15333A1C15321278BA
:400B000001321A703B1C15331A783B1C13331B7803339A42E7D13B1C13331B780333181C00F066FDBD4607B090BDC046980200201C0100209C01002080B586B000AF0023E2
:400B4000FB600023BB603B1C173303221A7000237B6000233B615F4B9B78FB60FB681B02FB605C4BDB78FA681343FB60594B1B79BB60BB681B02BB60564B5B79BA68134334
:400B8000BB60554B01221A70534B04225A70BB68DBB25B00DAB2504B9A70FB683B614AE04E4B3A699200D358FF2B23D93B1C17331B784A4A396989008A58120AD1B2464AB7
:400BC000D1543B1C17333A1C1732127801321A703B1C17331B78414A396989008A58D1B23D4AD1543B1C17333A1C1732127801321A701DE03B1C17331B78374A0021D154CF
:400C00003B1C17333A1C1732127801321A703B1C17331B78314A396989008A58D1B22E4AD1543B1C17333A1C1732127801321A703B6901333B61FA68BB68D2183B699A4267
:400C4000AED83B1C17331B780233DBB2181C00F019FC031C7B603B1C17331B787A68120AD1B21D4AD1543B1C17333A1C1732127801321A703B1C17331B787A68D1B2164A04
:400C8000D1543B1C17333A1C1732127802321A70012000F0CDFF00233B6109E00E4A3B69D3181B78181C00F075FE3B6901333B613B1C17331A783B699A42EFD1092000F0F1
:400CC00097FC00233B613B1C173300221A70BD4606B080BD980200201C010020D001002080B586B000AF0023FB600023BB603B1C173303221A7000237B6000233B61604BE9
:400D00009B78FB60FB681B02FB605D4BDB78FA681343FB605A4B1B79BB60BB681B02BB60574B5B79BA681343BB60564B01221A70544B03225A70BB68DBB25B00DAB2514B95
:400D40009A70FB683B614AE04F4B3A699200D358FF2B23D93B1C17331B784B4A396989008A58120AD1B2474AD1543B1C17333A1C1732127801321A703B1C17331B78424AAE
:400D8000396989008A58D1B23E4AD1543B1C17333A1C1732127801321A701DE03B1C17331B78384A0021D1543B1C17333A1C1732127801321A703B1C17331B78324A39699D
:400DC00089008A58D1B22F4AD1543B1C17333A1C1732127801321A703B6901333B61FA68BB68D2183B699A42AED83B1C17331B780233DBB2181C00F045FB031C7B603B1C4C
:400E000017331B787A68120AD1B21E4AD1543B1C17333A1C1732127801321A703B1C17331B787A68D1B2174AD1543B1C17333A1C1732127802321A70012000F0F9FE00236E
:400E40003B6109E00F4A3B69D3181B78181C00F0A1FD3B6901333B613B1C17331A783B699A42EFD13B1C17331B78181C00F0C0FB3B1C173300221A70BD4606B080BDC0466D
:400E8000980200201C010020D001002080B588B000AF0023BB6100237B6100233B610023FB600023BB6000237B6000233B600023FB61334B9B783B613B691B023B61304B35
:400EC000DB783A6913433B612D4BDB78BB612C4B9B787B612A4B1B79FB60FB681B02FB60274B5B79FA681343FB60254B5B79BB60234B1B797B60234B3A699200F968D150C4
:400F0000214B01221A70204B06225A70BB69DAB21D4BDA707B69DAB21B4B9A707B68DAB2194B1A71BB68DAB2174B5A71082000F0A9FA031C3B603B681B0ADAB2124B9A718E
:400F40003B68DAB2104BDA71012000F071FE0023FB6109E00C4AFB69D3181B78181C00F019FDFB690133FB61FB69092BF2D1092000F03EFB0023FB61BD4608B080BDC04624
:400F800098020020D00100201C01002080B58CB000AF00237B6200233B620023FB610023BB6100237B6100233B610023FB600023BB6000237B603B1C2F3300221A700023AB
:400FC0003B600023BB624F4B9B787B627B6A1B027B624C4BDB787A6A13437B62494B9B783B62484BDB78FB61464B1B79BB61BB691B02BB61434B5B79BA691343BB61414B05
:401000001B797B613F4B5B793B613E4B9B79FB603B1C2F3307221A70FB685B08BB600023BB6228E03B1C2F331B78364AD35C7B607B681B027B603B1C2F333A1C2F3212780E
:4010400001321A703B1C2F331B782E4AD35C7A6813437B603B1C2F333A1C2F32127801321A707A6ABB6AD218274B92007968D150BB6A0133BB62BA6ABB689A42D2D3234B51
:4010800001221A70214B10225A703B6ADAB21F4B9A70FB69DAB21D4BDA707B69DAB21B4B1A713B69DAB2194B5A71082000F0EAF9031C3B603B681B0ADAB2144B9A713B68FE
:4010C000DAB2124BDA71012000F0B2FD0023BB6209E00E4ABB6AD3181B78181C00F05AFCBB6A0133BB62BB6A092BF2D1092000F07FFA0023BB623B1C2F3300221A70BD4692
:401100000CB080BD98020020D00100201C01002080B588B000AF0023BB6100237B6100233B610023FB600023BB6000237B600023FB6100233B60374B9B783B613B691B02CC
:401140003B61344BDB783A6913433B61314BDB78BB61304B9B787B612E4B1B79FB60FB681B02FB602B4B5B79FA681343FB60294B5B79BB60274B1B797B60FB68002B05D0D0
:40118000254A3B69D318FF221A7004E0224A3B69D31800221A70214B01221A701F4B05225A70BB69DAB21D4BDA707B69DAB21B4B9A707B68DAB2194B1A71BB68DAB2174BD6
:4011C0005A71082000F05EF9031C3B603B681B0ADAB2124B9A713B68DAB2104BDA71012000F026FD0023FB6109E00C4AFB69D3181B78181C00F0CEFBFB690133FB61FB6951
:40120000092BF2D10A2000F0F3F90023FB61BD4608B080BD980200209C0100201C01002080B58AB000AF0023FB610023BB6100237B6100233B610023FB600023BB6000230D
:401240007B603B1C273300221A70FB1C00221A703B1C243300221A70874B9B78FB61864B9B78BB61FB691B02FB61834BDB78FA691343FB61804BDB787B617F4B1B793B61D1
:401280007D4B1B79FB603B691B023B617A4B5B793A6913433B61784B5B79BB60774B01221A70764B0F225A703B69DA083B1C27331A703B69D9B2FB1C07220A401A70FB1CF4
:4012C0001B78002B06D03B1C27333A1C2732127801321A70BB69DAB2684B9A707B69DAB2664BDA70FB68DAB2644B1A71BB68DAB2624B5A713B1C2433FA691A703B1C233343
:4013000007221A703B1C26333A1C273212781A7078E03B1C23331A78BB1C57498A5C1A703B1C23333A1C2332127801321A703B1C26331B78012B2ED93B1C253300221A7099
:4013400023E0BB1C1A783B1C25331B781A410123134006D03B1C24331B78494A0121D15405E03B1C24331B78454A0021D1543B1C24333A1C2432127801321A703B1C2533B1
:401380003A1C2532127801321A703B1C25331B78082BD6D12FE03B1C253300221A7023E0BB1C1A783B1C25331B781A410123134006D03B1C24331B78314A0121D15405E075
:4013C0003B1C24331B782E4A0021D1543B1C24333A1C2432127801321A703B1C25333A1C2532127801321A703A1C2532FB1C12781B789A42D4D13B1C26333A1C2632127860
:40140000013A1A703B1C26331B78002B00D080E7082000F037F8031C7B607B681B0ADAB2164B9A717B68DAB2144BDA71012000F0FFFB3B1C263300221A700EE03B1C2633E3
:401440001B780E4AD35C181C00F0A4FA3B1C26333A1C2632127801321A703B1C26331B78092BEBD10A2000F0C3F83B1C263300221A70BD460AB080BD980200201C01002096
:401480009C01002080B588B000AF021CFB1D1A70244BFB6100233B610023FB6000237B610023BB6121E0204ABB69D3181B78FA695340FB6108237B6111E0FA69012313401C
:4014C00007D0FB695B08FB61FB69184A5340FB6102E0FB695B08FB617B69013B7B617B69002BEAD1BB690133BB61FB1D1B789A1EBB699A42D7DCFB691B021B041B0C3B6185
:40150000FA69FF231B0213401B0AFB603A69FB6813433B613B69FB61FB69181CBD4608B080BDC046FFFF00001C01002001A0000080B586B000AF2A4B7B610023BB60002300
:401540007B600023FB6000233B6121E0254A3B69D3181B787A6953407B610823FB6011E07A690123134007D07B695B087B617B691D4A53407B6102E07B695B087B61FB6882
:40158000013BFB60FB68002BEAD13B6901333B61164B1B78DBB29A1E3B699A42D6DC7A69FF231340BB607A69FF231B0213401B0A7B600C4A3B69D3181B781A1CBB689A42D7
:4015C00009D13B690133074AD35C1A1C7B689A4201D1012300E00023181CBD4606B080BDFFFF00009802002001A000000701002080B582B000AF78600A4B181C00217D22E9
:4016000000F060FB7B68DBB20B33DAB2064B1A7000F0FCF8054B181C00F0A2FABD4602B080BDC0461C0100200E0100206D03000080B500AFFEE7C04680B586B000AF254B29
:401640007B61254B3B61234B7B61234B3B6132E03B691B68FB603B695B68BB603B699B683B6000237B600CE0FB681A68BB681A60BB680433BB60FB680433FB607B680433E6
:401680007B607A683B689A42EED13B69DB683B6000237B6008E0BB6800221A60BB680433BB607B6804337B607A683B689A42F2D13B6910333B617B695A1E9341DBB27A6957
:4016C000013A7A61002BC3D100F0D6FAFEF714FEFEE7C04601000000101D000080B582B000AF00237B600FE07B68032B04D80E4B7A689200D35800E00C4B0D4A7968890055
:401700008B507B6801337B607B682F2BECD9FEF731FD084B00221A608023DB0501221A60BD4602B080BDC046000000003116000000000020C000002080B582B000AF78607B
:4017400039607A683B68101C00211A1C00F0BAFABD4602B080BDC04680B500AFBD4680BD0230800804D0C0460138FDD1C046C0467047EFF3108072B6704780F31088704797
:4017800080B582B000AF021CBB1D1A80BB1D1B88044A12785343181CFFF7E2FFBD4602B080BDC046DC00002080B500AF074B812292041A60064B0C221A60012000F07CF834
:4017C000D12000F04DF8BD4680BDC046000105402401054090B583B000AFFC1DFFF7C9FF031C2370084B084A126801210A431A60FB1D1B78181CFFF7C0FF0120182100F037
:401800003DF8BD4603B090BD0000054080B500AF064B1B78002B04D1FFF7C6FF034B01221A70FFF7D7FFBD4680BDC0460F01002090B583B000AFFC1DFFF79BFF031C2370E9
:40184000064B064A126801218A431A60FB1D1B78181CFFF792FFBD4603B090BD0000054080B582B000AF7860034B7A681204120C1A60BD4602B080BD1401054090B585B0A4
:4018800000AF786039603C1C0F34FFF772FF031C2370084B3A687968081C9040021C1A603B1C0F331B78181CFFF767FFBD4605B090BDC0460800054080B582B000AF7860F0
:4018C000024B7A681A60BD4602B080BD3801054080B500AF024B1B68181CBD4680BDC0463001054080B582B000AF7860024B7A681A60BD4602B080BD3001054080B500AF48
:4019000000F05EF8BD4680BD80B500AF054B054A1268802109060A431A6000F017F8BD4680BDC0460000074080B500AF064B1B78002B04D1044B01221A70FFF7DFFFFFF793
:40194000E3FFBD4680BDC0461001002080B500AFBD4680BD80B582B000AF00237B60044B1B687B607B68181CBD4602B080BDC0464003074080B582B000AF054B1A680F2376
:4019800013407B607B68181CBD4602B080BDC0460803074080B582B000AF7860C046064B1A680F231340082BF9D0044B7A681A60BD4602B080BDC0460802074040020740D3
:4019C00080B500AF174B184A1A60184B00221A60174B01221A60174B174A1A60174B07221A60174B00221A60164B01221A60164B164A1A60164B00221A60164B00221A6054
:401A0000154B00221A60154B00221A60144B00221A60144B04221A60134B00221A60BD4680BDC046000007400F0000024000074048000740000307400702008004030740E5
:401A40001003074044000740000207400700008004020740880E0740C80E0740480F0740080F0740C80F0740880F074080B582B000AF00237B60FFF77DFF031C002B03D0CF
:401A8000FFF768FF031C7B60084B1A68D8239B00134005D000237B60044BD82292001A607B68181CBD4602B080BDC046C00F074080B582B000AF786000F048F87B68181C8F
:401AC00000F008F8002000F011F800F035F8BD4602B080BD80B582B000AF7860024B7A68DA66BD4602B080BD0000002090B585B000AF021CFB1D1A701E23FB603C1C0B3443
:401B0000FFF737FE031C23700A4B0A4A126892009108FA1D1078FA68041C9440221C0A431A603B1C0B331B78181CFFF726FEBD4605B090BD08E400E080B500AF024B802266
:401B400012011A60BD4680BD00E100E080B500AF024B802212011A60BD4680BD80E100E080B582B000AF786000F058F87B68181C00F014F8002000F01FF800F045F8BD465E
:401B800002B080BD80B500AF00F048F8024B181C00F004F8BD4680BD3116000080B582B000AF7860034A80237968D150BD4602B080BDC0460000002090B585B000AF021CEF
:401BC000FB1D1A700623FB603C1C0B34FFF7D1FD031C23700B4B0B4A1268C021101C8843011CFA1D1078FA68041C9440221C0A431A603B1C0B331B78181CFFF7BEFDBD468E
:401C000005B090BD10E400E080B500AF024B802252021A60BD4680BD00E100E080B500AF024B802252021A60BD4680BD80E100E080B584B000AF021CFB1D1A700D4B1B6857
:401C4000DAB23B1C0F3301218A431A70FB1D1A7801231340D9B23B1C0F333A1C0F3212780A431A70034B3A1C0F3212781A60BD4604B080BD0002044070B50E4B0E4D002469
:401C8000E81A85101E1CAC4204D0A100725890470134F8E700F02AF80849094A0E1C541AA5100024AC4204D0A300F05880470134F8E770BDF81C0000F81C0000F81C000023
:401CC000001D000000B58218031C934202D019700133FAE700BD00000000000000300F40000400400F40000404000000F8B5C046F8BC08BC9E467047C1020000DD160000C1
:401D0000F8B5C046F8BC08BC9E46704799020000201D0000C800002020000000300200000000000001000000C0F1FF0F00366E01C05D0000180000000000E02E0000000023
:401D40000000000000000000000000000000000000000000000000000000000000000000000000000000000000000000000000000000000000000000000000000000000063
:401D80000000000000000000000000000000000000000000000000000000000000000000000000000000000000000000000000000000000000000000000000000000000023
:401DC00000000000000000000000000000000000000000000000000000000000000000000000000000000000000000000000000000000000000000000000000000000000E3
:401E000000000000000000000000000000000000000000000000000000000000000000000000000000000000000000000000000000000000000000000000000000000000A2
:0200000490303A
:0200000088CEA8
:0200000490402A
:200000000000000000000000000000000000000000000000000000000000000000000000E0
:0200000490501A
:0C000000000204C81193110104D19A61A0
:0200000490600A
:0100000001FE
:00000001FF